:020000040800F2
:10000000B0060020010100084D230008F12000087F
:1000100049230008F30A00087129000800000000C5
:100020000000000000000000000000007D23000828
:10003000F70A000800000000512300087F23000891
:100040001B0100081B0100081B0100081B01000820
:100050001B0100081B0100081B0100081B01000810
:100060001B0100081B0100081B0100081B01000800
:100070001B0100081B0100081B0100081B010008F0
:100080001B0100081B0100081B0100081B010008E0
:100090001B0100081B0100081B0100081B010008D0
:1000A0001B0100081B0100081B0100081B010008C0
:1000B0001B0100081B0100081B0100081B010008B0
:1000C0001B0100081B0100081B0100081B010008A0
:1000D0001B0100081B0100081B0100086129000822
:1000E0001B0100081B0100081B010008DFF80CD0F1
:1000F00000F0A4FC00480047393D0008B00600208D
:100100000648804706480047FEE7FEE7FEE7FEE7B1
:10011000FEE7FEE7FEE7FEE7FEE7FEE7ED23000869
:10012000ED000008202A04DB203A21FA02F0002129
:10013000704721FA02F3D040C2F1200291400843F7
:1001400019467047D2B201E000F8012B491EFBD2DC
:1001500070470022F6E710B513460A4604461946D2
:10016000FFF7F0FF204610BDF0B480EA0102D40F83
:100170004200B2EB410F02D20246084611464A0045
:1001800042D0C30DDDB2C1F3C752AD1A202D35DA0E
:10019000C1F3160141F4000204B15242C5F1200638
:1001A00002FA06F12A411044B3EBD05F23D0C4B168
:1001B000012DA0EBC35009DCF0BC4FF0004202EA75
:1001C000C352DBB200F5000000F02DBB400000F18F
:1001D000807000EBC350A0F1807040EAD1704900FC
:1001E00009E0490841EAC071A0EBC35000F50000E6
:1001F000400800EBC350F0BC00F00CBB6142012290
:1002000002EB4101001BF6E7F0BC704781F00041B2
:10021000AAE780F00040A7E780EA010210B502F0EB
:100220000043400022D04A001FD0010E01EB1261B2
:10023000C0F35600C2F3560240F4000042F400023C
:10024000A0FB022000047F39140400D0401C50EAB7
:10025000124001D44000491EC2B20C0604EBD0107B
:10026000401C4008802A02D003E0002010BD20F08E
:100270000100002900DA0020184310BD30B480EAE4
:10028000010202F0004530F0004221F0004013D09E
:1002900090B1C30DD40DC2F31601C0F31600E41AD9
:1002A00041F4000140F400027D34914201D3641C0A
:1002B00000E04900002C02DA30BC002070474FF407
:1002C00000000023914201D3891A034340084FEAFA
:1002D0004101F7D151B1914202D14FF0004105E007
:1002E00002D24FF0010101E06FF0010103EBC450B5
:1002F000284430BC00F08EBA2DE9FE4F804681EADA
:100300000300C00F0C46009021F0004123F000458F
:10031000B8EB0200A94105D24046214690461C4652
:100320000B46024623F00040104347D0270DC7F389
:100330000A00C3F30A510290401A019040286BDA78
:10034000C3F3130040F4801B0098924620B10023B1
:10035000D2EB030A63EB0B0B01985946C0F1400244
:10036000504600F036FA06460D4650465946019A68
:1003700000F03EFA10EB08006141002487EA1152B8
:1003800084EAE7731A4340D0009A62B3019A012AC3
:100390004FEA075215DC001B61EB02014FF00042EF
:1003A00002EA0752CDE90042001C41F580113246B5
:1003B0002B4600F075FA03B0BDE8F08F40462146A9
:1003C000F9E7001B61EB0201001C41F580130018E6
:1003D0005B412018A2F5001747EB030140EAD570F6
:1003E000B6196D4111E06D084FEA360645EAC07551
:1003F0004FEA0752001B61EB0201001C41F580111E
:1004000049084FEA30000019514132462B4603B0EB
:10041000BDE8F04F00F035BA0098012240000023FB
:10042000D0EB020263EBE073009821464FEAE074E0
:10043000B8EB000061EB0401E9E783F000435BE700
:1004400081F0004158E72DE9FE4F81EA030404F0F2
:10045000004421F0004100944FF0000B23F00043D2
:1004600050EA01045ED052EA03045BD0C3F30A549D
:10047000C1F30A552C44A4F2F3340194A0FB0254B6
:10048000C1F3130141F48011C3F3130343F4801348
:1004900001FB024400FB034E840A970A44EA81549C
:1004A00047EA8357A4FB076802958D0A05FB078579
:1004B0004FEA932C04FB0C542705029D4FEA065883
:1004C00047EA1637B5EB08056EEB070C870E920E60
:1004D00047EA811742EA8312A7FB0201B6EB0B0140
:1004E00064EB00042B0D43EA0C335E1844EB1C5004
:1004F000DA465146E7FB0201C5F313044FEA0B331A
:1005000043EA14534FEA0432019C43EA0603A4F180
:100510000C040294009CCDE900B400F0C1F903B0D2
:10052000BDE8F08F00200146F9E72DE9F04D81EAA2
:10053000030404F0004B21F0004514464FF0000A7C
:1005400023F0004150EA050220D054EA01021DD0F8
:10055000C5F30A570246C5F31303C1F31300C1F3F1
:100560000A5640F4801543F48013A7EB0608101BCD
:10057000D64608F2FD3873EB050002D308F10108F6
:1005800001E092185B41B8F1000F03DA0020014648
:10059000BDE8F08D00204FF48011064684460EE041
:1005A000171B73EB050705D3121B63EB050306430B
:1005B0004CEA010C49084FEA300092185B4150EABE
:1005C0000107EDD152EA030012D082EA040083EA67
:1005D0000501084305D0101BAB4106D201220023C0
:1005E00006E000224FF0004302E06FF001025310DA
:1005F0001AEB06004CEB085110EB0A0041EB0B0123
:10060000BDE8F04D00F03DB90EB5C10F80EAE070D5
:100610000844CA07002140F233438DE80E000A4621
:100620000B4600F03DF903B000BDC1F30A5210B50E
:10063000C1F3130140F2FF3341F480119A4201DA11
:10064000002010BD40F233439A42A2F2334203DC51
:100650005242FFF767FD10BD904010BD00F0004210
:1006600030F000400AD0C10D01F56071C0F31600F2
:1006700042EA0151C2084007114370470020014679
:100680007047000030B5041E71F1000404DB4FF028
:100690000044404264EB0101141E73F1000405DBC9
:1006A0001C464FF00043524263EB04038B4208BFE9
:1006B000824230BD30B5041E71F1000404DB4FF0FE
:1006C0000044404264EB0101141E73F1000405DB99
:1006D0001C464FF00043524263EB0403994208BFAB
:1006E000904230BD01F0004330B421F0004150EAA7
:1006F000010206D00A0DA2F56072C1F31301002AAF
:1007000002DC30BC00207047440F44EAC104C10041
:10071000E01830BC00EBC25000F07CB8002801DBD0
:10072000C0F10040002901DBC1F100418142704766
:10073000002801DBC0F10040002901DBC1F10041CC
:100740008842704730B50B46014600202022012424
:1007500009E021FA02F59D4205D303FA02F5491B8F
:1007600004FA02F52844151EA2F10102F1DC30BDA5
:100770002DE9F05F0546002092469B4688460646D6
:10078000814640241BE02846414647462246FFF763
:10079000C9FC53465A46C01A914110D31146184617
:1007A000224600F016F82D1A67EB01084F46224644
:1007B0000120002100F00DF817EB00094E41201E2A
:1007C000A4F10104DFDC484631462A464346BDE831
:1007D000F09F202A04DB203A00FA02F10020704743
:1007E0009140C2F1200320FA03F31943904070476F
:1007F000202A06DBCB17203A41FA02F043EAE073E5
:1008000006E041FA02F3D040C2F1200291400843D1
:10081000194670470029A8BF7047401C490008BF0F
:1008200020F00100704710B4B0FA80FC00FA0CF020
:1008300050EA010404BF10BC704749B1CCF1200458
:1008400021FA04F411FA0CF118BF012121430843E5
:10085000A3EB0C01CB1D4FEA00614FEA102042BF11
:10086000002010BC704700EBC35010440029A4BF07
:1008700010BC7047401C490008BF20F0010010BCAC
:10088000704710B5141E73F1000408DA401C41F1E2
:10089000000192185B411A4301D120F0010010BD04
:1008A0002DE9F04D92469B4611B1B1FA81F202E07A
:1008B000B0FA80F220329046FFF78BFF04460F46D5
:1008C00040EA0A0041EA0B0153465A46084313D056
:1008D000114653EA010019D0C8F140025046FFF713
:1008E00021FC05460E46504659464246FFF771FF29
:1008F000084305D0012004E020463946BDE8F08DCC
:100900000020054346EAE0762C4337430A98630506
:10091000E40AA0EB08000022FD0A44EA47540A302A
:1009200002D500200146E9E7010510196941DDE91A
:10093000084500196941BDE8F04DA2E770B521F006
:10094000004303430CD0C1F30A550024D5EB040542
:1009500064EB0403D617AD1AB34102DB0020014655
:1009600070BD201841EB025170BD2DE9F04D002300
:100970001A461B1A8A4103DB00200146BDE8F08DB0
:10098000C1F30A52C1F3130141F480154FF0000B7B
:10099000D10702D100186D41521E0027044640F2D3
:1009A000FF11384601EB620A3E46804602460020AF
:1009B0004FF48011FFF7B6FBC2197141BB1846EB2B
:1009C0000100B4EB030C75EB000C04D3E41A65EBE7
:1009D000000517460E46241908F101006D418046B6
:1009E0003428E3DDF91946EB0600091BA84103D2C0
:1009F0004FF0FF32134601E0002213461BEB0700C5
:100A000046EB0A51BDE8F04DFFF73BBFC1F30A5278
:100A1000C1F3130140F2FF3341F480119A4202DA2C
:100A200000200146704740F233439A42A2F233421B
:100A300002DC5242FFF776BBFFF7CBBE064C074DF8
:100A400006E0E06840F0010394E80700984710349E
:100A5000AC42F6D3FFF74EFBD05C0008F05C000818
:100A60000EB540F2334102910021CDE900110A4652
:100A70000B46FFF715FF03B000BD70B5C1F30A5276
:100A800001F000450024C1F3130140F2FF3341F4AB
:100A900080119A4201DA002070BD40F233439A423D
:100AA000A2F2334203DC5242FFF73CFB00E09040ED
:100AB0002C43F1D0404270BD30B58C1810F8012B9A
:100AC00012F00F0301D110F8013B120906D110F802
:100AD000012B03E010F8015B01F8015B5B1EF9D10B
:100AE00001E001F8013B521EFBD1A142E6D30020F8
:100AF00030BD00BFFEE7704772B600BFFEE701469B
:100B0000002291F82100022808D00420886300BF49
:100B1000002081F8200000BF0120704708680068AD
:100B200020F00E000B6818600868006820F00100D3
:100B30000B68186091F8403001209840CB6B5860EA
:100B4000012081F8210000BF002081F8200000BFB3
:100B50001046E2E770B50446002594F8210002280B
:100B600003D00420A063012548E02068006820F03D
:100B70000E00216808602068006820F001002168EC
:100B800008601F492068884201D1012026E01C49E5
:100B900014312068884201D110201FE01849283103
:100BA0002068884201D1801518E015493C31206841
:100BB000884201D1801411E01149503120688842E7
:100BC00002D14FF4803009E00D4964312068884239
:100BD00002D14FF4801001E04FF0807008490839CD
:100BE0004860012084F8210000BF002084F8200024
:100BF00000BF606B10B12046616B8847284670BD0E
:100C00000800024070B5044600F0A6F906462546E5
:100C1000681C10B104480078054400BF00F09CF93E
:100C2000801BA842FAD370BD740100202DE9F8475B
:100C30000346002294466EE14FF0010808FA02F4E0
:100C4000D1F8008008EA0400A0427DD1DFF8DCA2E0
:100C5000D1F80480A8EB0A09D0453AD014DCB8F1E9
:100C6000030F50D009DCB8F1000F31D0B8F1010FFB
:100C70001CD0B8F1020F49D120E0B8F1110F18D003
:100C8000B8F1120F42D11EE0B9F5881F25D006DC5D
:100C9000B9F5803F20D0B9F5801F37D11AE0B9F5FA
:100CA000001F18D0B9F5041F30D117E0D1F80CC0DF
:100CB0002DE0D1F80C8008F1040C28E0D1F80C806C
:100CC00008F1080C23E0D1F80C8008F10C0C1EE0B0
:100CD00000BF00BF00BF00BF00BF00BFD1F8088049
:100CE000B8F1000F02D14FF0040C0BE0D1F80880EE
:100CF000B8F1010F03D14FF0080C1C6102E04FF076
:100D0000080C5C6103E04FF0000C00E000BF00BF86
:100D1000FF2801D8984601E003F104084646FF2861
:100D200002D84FEA820803E0A2F108084FEA8808D7
:100D30004746D6F800804FF00F0909FA07F928EA6C
:100D400009080CFA07F900E088E048EA0908C6F843
:100D50000080D1F8048008F08058B8F1805F7DD120
:100D600000BFDFF8CC81D8F8188048F00108DFF820
:100D7000C091C9F81880C846D8F8188008F0010852
:100D8000CDF8008000BF00BF4FEAB9384FEA9209A2
:100D900058F829504FEA82784FEA18794FF00F0837
:100DA00008FA09F825EA0805DFF88881434502D1E9
:100DB0004FF0000816E0DFF88081434502D14FF084
:100DC00001080FE0DFF87481434502D14FF00208BB
:100DD00008E0DFF86C81434502D14FF0030801E0E1
:100DE0004FF004084FEA82794FEA197908FA09F8B6
:100DF00048EA0505DFF84C814FEA920948F8295086
:100E0000D1F8048008F48038B8F5803F0AD1DFF8C3
:100E10003881D8F8008048EA0008DFF82C91C9F83A
:100E2000008009E0DFF82081D8F8008028EA000877
:100E3000DFF81491C9F80080D1F8048008F4003874
:100E4000B8F5003F10D1DFF8008108F10408D8F8A8
:100E5000008048EA0008DFF8F09000E05AE009F16D
:100E60000409C9F800800DE0DFF8DC8008F104080F
:100E7000D8F8008028EA0008DFF8CC9009F10409CE
:100E8000C9F80080D1F8048008F48018B8F5801FF4
:100E90000ED1DFF8B48008F10808D8F8008048EADD
:100EA0000008DFF8A49009F10809C9F800800DE0F6
:100EB000DFF8948008F10808D8F8008028EA0008D4
:100EC000DFF8849009F10809C9F80080D1F804809E
:100ED00008F40018B8F5001F0ED1DFF86C8008F197
:100EE0000C08D8F8008048EA0008DFF85C9009F1A7
:100EF0000C09C9F800800DE0DFF84C8008F10C08FF
:100F0000D8F8008028EA0008DFF83C9009F10C09C5
:100F1000C9F80080521CD1F8008028FA02F8B8F114
:100F2000000F7FF489AEBDE8F887000000001110C3
:100F30000010024000080140000C01400010014078
:100F40000014014008000140000401400AB10161A1
:100F500001E00B040361704701480068704700001E
:100F60006C010020034800680349097808440149DE
:100F7000086070476C0100207401002010B508481B
:100F8000006840F0100006490860032000F0A8F84F
:100F9000002000F007F800F02BF8002010BD000042
:100FA0000020024070B504460E4800784FF47A7174
:100FB000B1FBF0F00C490968B1FBF0F5284600F0F0
:100FC0000BFC08B1012070BD102C07D20022214675
:100FD000501E00F047F80548046001E00120F2E7E8
:100FE0000020F0E77401002078010020700100204B
:100FF00008B500BF1148806940F001000F498861C1
:101000000846806900F00100009000BF00BF00BFEB
:101010000846C06940F08050C8610846C06900F0C9
:101020008050009000BF00BF00BF0549486820F015
:10103000E06040F00070486000BF08BD0010024052
:101040000000014001460846002809DB00F01F03AC
:1010500001229A4043099B0003F1E023C3F80021D9
:1010600000BF70472DE9F05F80460D461646002709
:1010700001F0A4FC074639462A46334601F0070032
:10108000C0F1070ABAF1040F02D94FF0040A01E0D7
:10109000C0F1070AD14600F1040ABAF1070F02D2E3
:1010A0004FF0000A01E0A0F1030AD4464FF0010A14
:1010B0000AFA09FAAAF1010A0AEA020A0AFA0CFA79
:1010C0004FF0010B0BFA0CFBABF1010B0BEA030B1E
:1010D0004AEA0B042146404601F078FCBDE8F09F47
:1010E00000BF00F00702064B19684FF6FF031940D6
:1010F000044B0B4343EA0221014B196000BF7047C8
:101100000CED00E00000FA0570B504460D460CB980
:10111000012070BD5A48006800F00700A8420ED2B6
:101120005748006820F007002843554908600846E2
:10113000006800F00700A84201D00120E9E720780C
:1011400000F0020002281DD1207800F004000428DD
:1011500005D14C48406840F4E0604A494860207836
:1011600000F00800082805D14648406840F4605067
:10117000444948604348406820F0F000A1680843B3
:1011800040494860207800F0010078B36068012889
:1011900006D13C48006800F4003090B90120B8E75F
:1011A0006068022806D13748006800F0007040B936
:1011B0000120AEE73348006800F0020008B90120C2
:1011C000A7E73048406820F00300616808432D49D4
:1011D0004860FFF7C1FE064609E0FFF7BDFE801B31
:1011E00041F28831884202D9032092E707E025487E
:1011F000406800F00C006168B0EB810FEDD1204831
:10120000006800F00700A8420ED91D48006820F0D1
:10121000070028431A4908600846006800F00700E4
:10122000A84201D0012074E7207800F004000428CF
:1012300007D11448406820F4E060E1680843114990
:101240004860207800F00800082808D10D48406860
:1012500020F46050216940EAC1000A49486000F06A
:101260003FF808494968C1F30311074A515CC84077
:101270000649086006480068FFF794FE002048E72A
:101280000020024000100240905A0008780100201F
:1012900070010020014800687047000078010020BC
:1012A00000B5FFF7F7FF04494968C1F30221034A7B
:1012B000515CC84000BD000000100240A05A000868
:1012C00000B5FFF7E7FF04494968C1F3C221034AAB
:1012D000515CC84000BD000000100240A05A000848
:1012E000F0B585B00FF26C0C9CE8E01001A8A0E806
:1012F000E0101CA52D680095002100220023002489
:101300000020194D696801F00C05F5B1042D02D0DB
:10131000082D19D101E0154819E001ADC1F383464C
:10132000AC5D01F4803555B10F4D6D68C5F3404596
:101330001DF805200D4D6543B5FBF2F302E00C4DA1
:1013400004FB05F3184602E000BF084800BF00BFD9
:1013500005B0F0BD02030405060708090A0B0C0DD1
:101360000E0F1010010200000010024000127A005F
:1013700000093D00F8B504460CB90120F8BD2078FD
:1013800000F00100002878D0F848406800F00C0018
:1013900004280CD0F548406800F00C00082811D152
:1013A000F248406800F48030B0F5803F0AD1EF4841
:1013B000006800F4003000285FD0606800285CD12D
:1013C0000120DBE700BF6068B0F5803F06D1E74849
:1013D000006840F48030E549086028E0606858B94A
:1013E000E248006820F48030E04908600846006860
:1013F00020F4802008601AE06068B0F5A02F0BD1BF
:10140000DA48006840F48020D8490860084600683F
:1014100040F4803008600AE0D448006820F480304E
:10142000D24908600846006820F48020086000BFA8
:10143000606888B1FFF790FD054606E0FFF78CFD78
:10144000401B642801D9032098E7C848006800F4CD
:1014500000300028F2D010E0FFF77EFD054606E0E0
:10146000FFF77AFD401B642801D9032086E7BF48B7
:10147000006800F400300028F2D1207800F002006B
:10148000022857D1B948406800F00C0050B1B74865
:10149000406800F00C00082818D1B448406800F4F7
:1014A000803098B9B148006800F0020020B120698E
:1014B000012801D0012061E7AC48006820F0F80065
:1014C000616940EAC100A949086033E02069E8B1D8
:1014D0000120A7490860FFF73FFD054606E0FFF73A
:1014E0003BFD401B022801D9032047E79F480068C5
:1014F00000F002000028F2D09C48006820F0F800BC
:10150000616940EAC1009949086013E000209849E8
:101510000860FFF721FD054606E0FFF71DFD401BB3
:10152000022801D9032029E79048006800F0020052
:101530000028F2D1207800F0080008282DD1A069F9
:10154000B8B101208B490860FFF706FD054606E0AB
:10155000FFF702FD401B022801D903200EE7834854
:10156000406A00F002000028F2D0012000F0F2FEF4
:1015700013E000207F490860FFF7EEFC054606E017
:10158000FFF7EAFC401B022801D90320F6E6774862
:10159000406A00F002000028F2D1207800F0040038
:1015A000042873D100277148C06900F0805070B9D9
:1015B00000BF6E48C06940F080506C49C861084661
:1015C000C06900F08050009000BF00BF01276A484A
:1015D000006800F48070B0B96748006840F480701B
:1015E00065490860FFF7B8FC054606E0FFF7B4FC64
:1015F000401B642801D90320C0E65F48006800F45E
:1016000080700028F2D000BFE068012806D157485A
:10161000006A40F001005549086227E0E06858B9C7
:101620005248006A20F00100504908620846006AEA
:1016300020F00400086219E0E06805280BD14B484F
:10164000006A40F00400494908620846006A40F018
:10165000010008620AE04548006A20F001004349A1
:1016600008620846006A20F00400086200BFE068D3
:10167000A0B1FFF771FC054609E0FFF76DFC401BC8
:1016800041F28831884202D9032077E622E03748C8
:10169000006A00F002000028EFD012E0FFF75CFCC7
:1016A000054608E0FFF758FC401B41F288318842AC
:1016B00001D9032062E62D48006A00F002000028EC
:1016C000F0D1012F05D12948C06920F08050274969
:1016D000C86100BFE069C8B32448406800F00C004E
:1016E000082860D0E069022848D100202049086617
:1016F000FFF732FC054606E0FFF72EFC401B0228F0
:1017000001D903203AE61948006800F0007000286B
:10171000F2D1206AB0F5803F07D11448406820F428
:101720000030A168084311494860D4E90801084322
:101730000E49496821F4741108430C49486001209E
:101740000B490866FFF708FC054607E03DE0FFF798
:1017500003FC401B022801D903200FE60348006860
:1017600000F000700028F2D02FE0000000100240CE
:1017700000004242800442420070004000201449B0
:101780000866FFF7E9FB054606E0FFF7E5FB401BAF
:10179000022801D90320F1E50E48006800F000702E
:1017A0000028F2D111E0E069012800D1E6E50948FE
:1017B000466806F48031206A814204D106F4701133
:1017C000606A814201D00120D8E50020D6E5000002
:1017D000000042420010024070B504462546681ED3
:1017E000B0F1807F01D301200FE0681E4FF0E021AF
:1017F00048610F214FF0FF3001F0E8F800204FF072
:10180000E021886107200861002070BD30B50246E4
:101810000B4600BF92F83C00012801D1022030BDE8
:10182000012082F83C0000BF022082F83D001068D1
:1018300044681068816824F07004186804431068D4
:101840004460104D1068A8420BD01068B0F1804F72
:1018500007D00D4D1068A84203D00C4D1068A84267
:1018600005D121F080015868014310688160012092
:1018700082F83D0000BF002082F83C0000BF00BF9E
:10188000CDE70000002C01400004004000080040AB
:1018900010B586B004460020029003900490059095
:1018A0002068B0F1804F17D100BF2548806940F013
:1018B0000400234988610846806900F00400019013
:1018C00000BF00BF0F20029002200390059002A9E4
:1018D0001C48FFF7ABF930E01B49206888422CD147
:1018E00000BF1748806940F0040015498861084628
:1018F000806900F00400019000BF00BF00BF0846EF
:10190000806940F0080088610846806900F008009E
:10191000019000BF00BFC0200290022003900590FC
:1019200002A90848FFF782F90320029002200390E1
:10193000059002A90548FFF779F906B010BD00002F
:10194000001002400008014000040040000C01406B
:1019500070B504460D46164600BF94F83C000128B9
:1019600001D1022070BD012084F83C0000BF36B1D7
:10197000042E1BD0082E31D00C2E5ED145E0294616
:10198000206800F081FD2068806940F0080021682F
:1019900088612068806920F00400216888612068DF
:1019A0008069296908432168886147E029462068E1
:1019B00000F09AFD2068806940F400602168886129
:1019C0002068806920F480602168886120688069CF
:1019D000296940EA0120216888612FE029462068B2
:1019E00000F0B6FD2068C06940F008002168C861B9
:1019F0002068C06920F004002168C8612068C069BF
:101A0000296908432168C86118E02946206800F068
:101A1000D3FD2068C06940F400602168C861206877
:101A2000C06920F480602168C8612068C0692969A4
:101A300040EA01202168C86100E000BF00BF00BF8C
:101A4000002084F83C0000BF00BF8BE710B50446BF
:101A50000CB9012010BD94F83D0028B9002084F88D
:101A60003C00204600F026F8022084F83D00211DAD
:101A7000206800F0BDFC012084F8460000BF84F817
:101A80003E0001213F2001554020015541200155D4
:101A900000BF00BF012084F84200432001554420CC
:101AA00001554520015500BF012084F83D0000206C
:101AB000D0E7000008B50168B1F1804F0DD100BF3B
:101AC0000F49C96941F001010D4AD1611146C96947
:101AD00001F00101009100BF11E00A4A0168914242
:101AE0000DD100BF0649C96941F00201044AD16124
:101AF0001146C96901F00201009100BF00BF08BD95
:101B0000001002400004004070B504460D4615B9AF
:101B100094F83E000BE0042D02D13F20005D06E06A
:101B2000082D02D14020005D01E04120005D012828
:101B300001D0012070BD1DB9022084F83E000EE0E6
:101B4000042D03D102213F20015508E0082D03D1C7
:101B500002214020015502E00221412001550122CD
:101B60002946206800F07EFC19492068884201D18E
:101B7000012000E0002028B12068406C40F40040C3
:101B8000216848641249206888420BD02068B0F16F
:101B9000804F07D00F492068884203D00E49206843
:101BA00088420CD12068806800F00706062E0CD011
:101BB0002068006840F001002168086005E02068A6
:101BC000006840F00100216808600020B2E70000D2
:101BD000002C01400004004000080040704770479E
:101BE0002DE9F84F0446206805682068C66820681B
:101BF00047694FF00009CA4605F00F09B9F1000F17
:101C00000AD105F0200038B106F0200020B12046AE
:101C100000F02BFDBDE8F88FB9F1000F71D007F08F
:101C2000010018B906F4907000286AD005F0010090
:101C300030B106F4807018B1206C40F001002064CF
:101C400005F0040030B107F0010018B1206C40F03D
:101C50000200206405F0020030B107F0010018B165
:101C6000206C40F00400206405F0080048B106F044
:101C7000200010B907F0010018B1206C40F00800F6
:101C80002064206C68B305F0200028B106F0200025
:101C900010B1204600F0E9FC20684069C0F3801ACA
:101CA000206C00F0080010B9BAF1000F22D02046D5
:101CB00000F0B0FC2068406900F04000B0B120683E
:101CC000406920F0400021684861A06B50B156483F
:101CD000A16B4863A06BFEF73DFF10B1A06B416B99
:101CE00088470CE02046FFF77AFF08E02046FFF720
:101CF00076FF04E02046FFF772FF0020206489E7AA
:101D0000FFE7206B012878D105F01000002874D07F
:101D100006F01000002870D000BF0020009020685E
:101D20000068009020684068009000BF00BF2068F5
:101D3000406900F04000C0B3A06B006840681FFA23
:101D400080F8B8F1000F2FD0A08D40452CDDA4F80D
:101D50002E80A06B806920281FD02068C06820F4E6
:101D600080702168C8602068406920F00100216807
:101D700048612068406920F04000216848612020C7
:101D800084F83E00002020632068C06820F0100026
:101D90002168C860A06BFEF7B2FEA08DE28D801AAC
:101DA00081B22046FFF71AFF34E7FFE7A08DE18DEF
:101DB000401A1FFA80F8E08DE8B1B8F1000F1AD090
:101DC0002068C06820F490702168C860206840696D
:101DD00020F0010021684861202084F83E000020A6
:101DE00020632068C06820F010002168C860414668
:101DF0002046FFF7F3FE0DE7FFE705F0800030B166
:101E000006F0800018B1204600F043FD02E705F01F
:101E1000400030B106F0400018B1204600F015FC3B
:101E2000F8E600BFF6E600000126000810B50446FB
:101E30000CB9012010BDA06900B100E000BF94F80A
:101E40003D0028B9002084F83C00204600F028F826
:101E5000242084F83D002068C06820F400502168E8
:101E6000C860204600F074FC2068006920F49040AF
:101E7000216808612068406920F02A0021684861D3
:101E80002068C06840F400502168C86000202064C9
:101E9000202084F83D0084F83E000020CAE70000BE
:101EA00010B586B00446002002900390049005907F
:101EB0003849206888422FD100BF3748806940F4F4
:101EC0008040354988610846806900F4804001906F
:101ED00000BF00BF00BF0846806940F00400886171
:101EE0000846806900F00400019000BF00BF48155B
:101EF0000290022003900320059002A92748FEF7D4
:101F000095FE4FF48060029000200390049002A997
:101F10002248FEF78BFE3AE021492068884236D1FC
:101F200000BF1D48C06940F480201B49C8610846B5
:101F3000C06900F48020019000BF00BF00BF0846C8
:101F4000806940F0080088610846806900F0080058
:101F5000019000BF00BF08150290022003900320EB
:101F6000059002A90F48FEF761FE4FF40060029051
:101F700000200390049002A90A48FEF757FE0022B1
:101F800011462720FFF76EF82720FFF75BF806B011
:101F900010BD000000380140001002400008014060
:101FA00000480040000C014070B504460D4616463E
:101FB00094F83E00202816D105B10EB9012070BD5D
:101FC00000BF94F83C00012801D10220F7E701206E
:101FD00084F83C0000BF002020633246294620469A
:101FE00000F034FCEBE70220E9E7000070B505469D
:101FF00007492868884204D106480478204601F041
:1020000041FF012203490448FFF7CEFF70BD0000E5
:102010000048004048010020580200202DE9F84FF8
:1020200004460E46174699464FF0000A94F83D00C4
:1020300020285AD106B117B90120BDE8F88F00BF9A
:1020400094F83C00012801D10220F6E7012084F831
:102050003C0000BF00202064212084F83D00FEF7F2
:102060007BFF8246A784E784A068B0F5805F04D137
:10207000206910B90025B04602E035464FF000084F
:1020800000BF002084F83C0000BF1BE05346002244
:1020900080212046CDF8009000F02BFC08B10320F1
:1020A000CBE745B9B8F80000C0F3080021684860E4
:1020B00008F1020803E02878216848606D1CE08C74
:1020C000401EE084E08C0028E0D1534600224021ED
:1020D0002046CDF8009000F00CFC08B10320ACE7DE
:1020E000202084F83D000020A7E70220A5E77047E4
:1020F00000BFFEE700B585B000200190029003907C
:10210000049000BF1D48806940F020001B49886191
:102110000846806900F02000009000BF00BF00BFAB
:102120000846806940F0040088610846806900F034
:102130000400009000BF00BF00BF0846806940F067
:10214000080088610846806900F00800009000BF20
:1021500000BF00224FF4E0410948FEF7F7FE4FF4BC
:10216000E0400190012002900020039002200490A2
:1021700001A90348FEF75AFD05B000BD001002405A
:10218000000C014000B589B00020079008901C2188
:102190006846FDF7DEFF4FF0804023490860472086
:1021A000486000212048816044F61F61C160002121
:1021B00001618161FFF74AFC08B1FEF79DFC002038
:1021C0000790089007A91848FFF720FB08B1FEF711
:1021D00093FC602000900020019002900490002267
:1021E00069461148FFF7B4FB08B1FEF785FC0422ED
:1021F00069460D48FFF7ACFB08B1FEF77DFC0822ED
:1022000069460948FFF7A4FB08B1FEF775FC0C22EC
:1022100069460548FFF79CFB08B1FEF76DFC0248D4
:10222000FFF736FB09B000BD8401002000B589B07E
:102230000020079008901C216846FDF78AFF24487B
:10224000244908604720486000212248816044F604
:102250001F61C160002101618161FFF7F7FB08B1D7
:10226000FEF74AFC00200790089007A91948FFF7DD
:10227000CDFA08B1FEF740FC6020009000200190EC
:1022800002900490002269461248FFF761FB08B1F2
:10229000FEF732FC042269460E48FFF759FB08B1ED
:1022A000FEF72AFC082269460A48FFF751FB08B1ED
:1022B000FEF722FC0C2269460648FFF749FB08B1ED
:1022C000FEF71AFC0348FFF7E3FA09B000BD00006F
:1022D00000040040CC01002010B50B480B490860F9
:1022E0004FF4E1304860002108488160C16001611D
:1022F0000C21416100218161C161FFF797FD08B1A7
:10230000FEF7FAFB10BD0000003801401402002067
:1023100010B50B480B4908604FF4E13048600021CC
:1023200008488160C16001610C2141610021816127
:10233000C161FFF77BFD08B1FEF7DEFB10BD0000B9
:10234000004800405802002000BFFEE700BFFEE743
:102350007047000008B508490968C9084FF47A7247
:10236000B1FBF2F14143009100BF00BF00994A1E4A
:1023700000920029F9D108BD78010020704710B5FE
:10238000FEF7F0FD10BD00B58FB0282105A8FDF7C0
:10239000E0FE14216846FDF7DCFE012005900004F4
:1023A0000690002007900120099002200C90C103A4
:1023B0000D914FF4E0110E9105A8FEF7DBFF08B177
:1023C000FEF79AFB0F20009002200190002002905F
:1023D0004FF4806003900020049002216846FEF7CD
:1023E00093FE08B1FEF788FB0FB000BD70470000F8
:1023F00010B50268184B984208D0B0F1804F05D054
:10240000164B984202D0164B984203D122F070022C
:102410004B681A43104B984208D0B0F1804F05D05A
:102420000E4B984202D00E4B984203D122F44072D8
:10243000CB681A4322F080034C6943EA040202602D
:102440008B68C3620B688362034B984201D10B69AE
:1024500003630123436110BD002C014000040040D0
:102460000008004030B501F01F05012404FA05F30F
:10247000046A9C430462046A01F01F0502FA05F530
:102480002C43046230BD000030B5056A25F001051B
:102490000562026A4368846924F0700424F003042E
:1024A0000D682C4322F002028D682A430D4DA8428C
:1024B00006D100BF22F00802CD682A4322F00402B0
:1024C000084DA84207D123F4807323F400734D69AB
:1024D0002B438D692B43436084614D6845630262E1
:1024E00030BD0000002C014030B5056A25F0100514
:1024F0000562026A4368846924F4E04424F4407469
:102500000D6844EA052422F020028D6842EA051293
:102510000E4DA84207D100BF22F08002CD6842EAEA
:10252000051222F04002094DA84209D123F480632C
:1025300023F400634D6943EA85038D6943EA85030B
:10254000436084614D688563026230BD002C0140A8
:1025500030B5056A25F480750562026A4368C4696E
:1025600024F0700424F003040D682C4322F400725C
:102570008D6842EA05220F4DA84207D100BF22F420
:102580000062CD6842EA052222F48062094DA84229
:1025900009D123F4805323F400534D6943EA051312
:1025A0008D6943EA05134360C4614D68C5630262E7
:1025B00030BD0000002C014030B5056A25F480557F
:1025C0000562036A4468C26922F4E04222F4407260
:1025D0000D6842EA052223F400538D6843EA05336F
:1025E000064DA84204D124F480444D6944EA851480
:1025F0004460C2614D680564036230BD002C014037
:1026000070B505466C6A0020E085E0842046FFF73F
:10261000E6FA70BD0168C96821F490710268D16062
:102620000168496921F0010102685161016B0129CA
:1026300005D10168C96821F010010268D16020212C
:1026400080F83E1000210163704710B504462068F1
:10265000C06820F040002168C860202084F83D0058
:102660002046FFF744FD002010BDF8B5044694F85D
:102670003E00222869D1A068B0F5805F0CD12069A6
:1026800050B90025A66A20684068C0F30800308071
:10269000A06A801CA06215E0A56A0026A068B0F5BB
:1026A000805F03D0A06828B9206918B92068406805
:1026B000287004E02068406800F07F002870A06A5D
:1026C000401CA062E08D401E80B2E085A8BB20685F
:1026D000C06820F020002168C8602068C06820F42D
:1026E00080702168C8602068406920F0010021687E
:1026F0004861202084F83E00206B01281ED1002074
:1027000020632068C06820F010002168C86020683D
:10271000006800F0100010280AD100BF00200090CF
:1027200020680068009020684068009000BF00BFEB
:10273000A18D2046FFF752FA03E004E02046FFF7A0
:1027400055FC0020F8BD0020FCE70220FAE700005D
:1027500070B504462168096921F44051E2681143CB
:10276000226811612269A1681143626941EA020588
:102770002168C96841F20C62914329432268D16003
:102780002168496921F44071A269114322685161AD
:102790002D4A2168914202D1FEF792FD01E0FEF739
:1027A0007FFD00EBC00101EB001162689200B1FBFC
:1027B000F2F100EBC00202EB001263689B00B2FB77
:1027C000F3F26423B2FBF3F202EBC20303EB021257
:1027D000A1EB8201322202EB01116422B1FBF2F182
:1027E00001F0F00100EBC00202EB001263689B00F5
:1027F000B2FBF3F26423B2FBF3F201EB021200EB43
:10280000C00101EB001163689B00B1FBF3F100EB29
:10281000C00303EB00136668B600B3FBF6F364264F
:10282000B3FBF6F303EBC30606EB0313A1EB830143
:10283000322303EB01116423B1FBF3F101F00F012B
:1028400011442268916070BD0038014010B5034604
:1028500099629A85DA8500201864222083F83E0068
:1028600000BF002083F83C0000BF1868C06840F437
:1028700080701C68E0601868406940F001001C68C6
:1028800060611868C06840F020001C68E0600020AB
:1028900010BD014691F83D00212828D18868B0F587
:1028A000805F0BD1086948B90A6A1088C0F3080034
:1028B0000B685860086A801C086205E00B6A581CA7
:1028C000086218780B685860C88C401E80B2C884B3
:1028D00058B90868C06820F080000B68D8600868A4
:1028E000C06840F040000B68D860002070470220AC
:1028F000FCE72DE9F04104460D4617469846069E32
:1029000021E0701CF8B12EB1FEF726FBA0EB080009
:10291000B04218D92068C06820F4D0702168C8601F
:102920002068406920F0010021684861202084F877
:102930003D0084F83E0000BF002084F83C0000BF4A
:102940000320BDE8F081206800682840A84201D13A
:10295000012000E00020B842D3D00020F1E70000C1
:1029600010B50248FFF73CF910BD000058020020E6
:1029700000BFFEE70FB4054B10B503A9044A029847
:1029800000F030FC10BC5DF814FB00001D3D000899
:102990007C010020490050EAC12018BF04204A0DE4
:1029A00018BF40F0010040F2FF72B2EB515F08BF68
:1029B00040F00200012808BF052070470248006867
:1029C000C0F30220704700000CED00E010B50028B5
:1029D00004DB0A07130E054A135406E00A07140E17
:1029E000034A00F00F031B1FD45410BD00E400E0A5
:1029F00018ED00E02DE9F74F144694B00021C4E92A
:102A000002111599079121F00045C9498D4206DC54
:102A10001599C4E9000117B00020BDE8F08FC54941
:102A2000DFF814A3A9423CDD0799C44E0029C44F26
:102A3000C44A1599534619DDFDF7FFFC554506D0EC
:102A4000C14AC24BFDF7F9FCC4E900010AE04FF0AE
:102A5000D352BE4BFDF7F1FC32463B46FDF7EDFC91
:102A6000C4E9000117B00120BDE8F08FFDF744FC78
:102A7000554506D0B44AB54BFDF73EFCC4E900010C
:102A80000AE04FF0D352B14BFDF736FC32463B46DD
:102A9000FDF732FCC4E9000117B04FF0FF30BDE88C
:102AA000F08FAB49A942159978DB21F000418346AC
:102AB0008846A84AA84BFDF7C6FC0022A74BFDF7A5
:102AC0001BFCFDF7DAFF0990FDF79EFD06460F4659
:102AD0009C4A5346FDF7B7FC43465A46FDF7B0FC07
:102AE00080468A46984A994B30463946FDF7ABFCFA
:102AF0002A0D01250B9242465346FDF7A1FC032DFA
:102B0000C4E9000139D00B98C1F30A51401A05EB12
:102B100045111139814230DA9148C346784400EBBF
:102B20000510CDF80CA00C90D0E9002330463946B2
:102B3000FDF789FC02460B4604910690584603991E
:102B4000FDF77BFC80468A4602460B4658460399B1
:102B5000FDF773FC049B069AFDF76FFC83460C9807
:102B600003913946D0E902233046FDF76CFC5A4602
:102B7000039BFDF762FC6D1CBDE707980028A2BF10
:102B8000099817B0BDE8F08F616881F0004161607D
:102B9000099817B04042BDE8F08FFFE784461598CA
:102BA000C1F31301C0F30A50A0F2F5304FEA6018E8
:102BB00000F01F06C6F12000139000200690079039
:102BC00041F4801E05206D4676B1664A08EB00018F
:102BD0007A4452F8213002EB8101B3404A681399DC
:102BE00022FA01F1194305E05F4908EB000279443C
:102BF00051F82210A1FB0E27A1FB0C131A449A4294
:102C000034BF0123002303EB070A05EB8003D3E95C
:102C100001B70F448F4234BF0121002193448B44FC
:102C200011B1934502D903E0934501D2012100E09F
:102C30000021C3E901B7514445F82010011EA0F15D
:102C40000100C1DC0298059F00F10050800F129036
:102C50000298DDE903568000FDF7D6FC834628463E
:102C60000D91FDF7FDFE6FF01D02FDF767FECDE94A
:102C70000E013046FDF7F4FE6FF03D02FDF75EFEFB
:102C800080468A463846FDF7EBFE6FF05D02FDF7A1
:102C900055FE0746424653461191FDF72DFBDDE9EF
:102CA0000E23FDF729FB5A460D9BFDF725FB00255A
:102CB0000E465A4628460D9BFDF7BFFBDDE90E2365
:102CC000FDF7BBFB42465346FDF7B7FB3A46119B67
:102CD000FDF7B6FBDFF898A0244A5346FDF7B3FB97
:102CE00007468846234A244B31462846FDF7ABFB6E
:102CF0003A464346FDF700FB074688464FF0A84298
:102D0000534631462846FDF79EFB3A464346FDF7BB
:102D1000F3FA159A12F0004F04D0129A81F0004194
:102D200052421292C4E90001129817B0BDE8F08F28
:102D3000FB21E93F7CD90240FB21F93F7370032E50
:102D40008A19A33B000040543163621A61B4D03D3C
:102D5000FB21394183C8C96D305FE43F0000E03F8B
:102D600050300000CC2F0000AE2F0000182D44542E
:102D7000FB21F93D3326A611460B113C2DE9FF4DF1
:102D800021F0004807460C46B8F1795F08DAFDF7F4
:102D900074FE002801BF0020324904B0BDE8F08D68
:102DA0003A46234610461946FDF74DFB05460246B6
:102DB0002D480E460B460621784400F05DF82A4661
:102DC0003346FDF740FBDDE9022382468B46384659
:102DD0002146FDF738FB04460F4652465B4628461F
:102DE0003146FDF730FB22463B46FDF726FB074602
:102DF0008A464FF0FF3228463146FDF79FFD1B4AB9
:102E000090450ADA3A465346FDF717FB04B0002214
:102E1000BDE8F04D134BFDF713BB154A4245A8BF63
:102E2000A8F500154FF00004B8BF124D22462B46FE
:102E3000FDF703FB0646884622462B46002009493B
:102E4000FDF7FBFA04460D463A46534630464146E6
:102E5000FDF7F3FA04B022462B46BDE8F04DFDF72E
:102E6000EFBA00000000F03F842D00003333D33F61
:102E70000000E93F0000D23F2DE9F0414F1E00EB7A
:102E8000C7010446D1E9000115461E4637F0060287
:102E90000DD02A463346FDF7D6FA7F1E04EBC70352
:102EA000D3E90023FDF728FA37F00602F1D1022F0B
:102EB00025D0042F13D0062F18BFBDE8F0812A4675
:102EC0003346FDF7C0FAD4E90A23FDF715FA2A467E
:102ED0003346FDF7B8FAD4E90823FDF70DFA2A4680
:102EE0003346FDF7B0FAD4E90623FDF705FA2A4682
:102EF0003346FDF7A8FAD4E90423FDF7FDF92A4685
:102F00003346FDF7A0FAD4E90223FDF7F5F92A4686
:102F10003346FDF798FAD4E90023BDE8F041FDF708
:102F2000EBB900002DE9FF4D054621F0004084B0CB
:102F30000C46B0F1795F0BDA2846FFF72BFD042829
:102F400008BF00F06FF8284608B02146BDE8F08DB4
:102F50002A460B461046FDF776FA06460F462A46E5
:102F60002346FDF770FA804626488A4632463B469D
:102F700005217844FFF780FF83461098029160B3E3
:102F8000214A224B40465146FDF75DFACDE900014A
:102F90005A4640465146029BFDF755FA82468846FE
:102FA000DDE906014FF0FF32FDF7C8FC524643460B
:102FB000FDF743FA32463B46FDF745FADDE90623C5
:102FC000FDF73BFADDE90023FDF737FA08B02A46A2
:102FD0002346BDE8F04DFDF733BA0B465A4630465E
:102FE0003946FDF730FA084A084BFDF785F94246A5
:102FF0005346FDF728FA08B02A462346BDE8F04DAF
:10300000FDF77AB9C22C0000495555555555C5BF35
:103010000122FDF793BC0022134610461146FDF72E
:1030200084BA0000024A00201107FDF787BC0000A7
:1030300001FDFFFF02E008C8121F08C1002AFAD1F3
:1030400070477047002001E001C1121F002AFBD128
:1030500070470000014908607047000080010020AF
:103060002DE9FF5F82B00021DDE90430020DDDF8BB
:1030700040B0034318D044F61050A2F2FF3242434E
:103080001514119801281FD0A5EB0B00401C5FEA16
:10309000000A4FF000064E4FDFF83891B046504618
:1030A00015D5CAF1000413E0119801244AA30128A0
:1030B00001D16FEA0B010298119AC0E90031C0E911
:1030C000024206B0BDE8F09FCBF10000DFE7044606
:1030D0000021404A491842EB0450CDE9001012E0AB
:1030E000E00707D032463B4640464946FDF7ABF97C
:1030F0008046894632463B4610461946FDF7A3F9FD
:1031000006460F466410002CEAD1DDE90401DDE932
:103110000023BAF1000F06DAFDF795F942464B4657
:10312000FDF791F905E0FDF700FA42464B46FDF741
:10313000FCF904460E460022284BFDF7BBFA03D8E3
:103140004FF0FF30014607E00022254B2046314674
:10315000FDF7D2F8FDF75AFC102409E0002C0ADB39
:103160000A220023FDF704FB039B30321A55641E2C
:1031700050EA0102F2D1641C039AC4F11103144411
:10318000119A012A03D0012208430DD10AE0084315
:1031900004D000204FF0110B119072E7A3EB0B0548
:1031A0006D1E0DE05B4504DD4FF0000205F10105E9
:1031B00004E003DA4FF00002A5F10105002AECD08B
:1031C00002981199C0E90231C0E9004579E7000091
:1031D000000014400000F03F300000000000F04309
:1031E0000000E03F2DE9FF4F95B09B46894606461B
:1031F00000250FE2252877D100242746F84A01212F
:10320000059400E0044316F8013F203B01FA03F067
:103210001042F7D130782A2811D06FF02F03307880
:10322000A0F13002092A16D8059A44F0020402EBF4
:10323000820203EB42021044761C0590EFE759F836
:10324000042B0592002A03DA504244F400540590FE
:1032500044F00204761C30782E2816D116F8010F9F
:1032600044F004042A280DD06FF02F023078A0F12A
:103270003003092B09D807EB870302EB4303C71878
:10328000761CF3E759F8047B761C30786C280FD055
:1032900006DC4C2817D068280DD06A2814D104E029
:1032A000742810D07A280FD10DE044F400140AE0FD
:1032B00044F4801401E044F440147278824202D154
:1032C00004F58014761C761C307866280BD013DC4D
:1032D000582877D009DC002875D04528F6D0462834
:1032E000F4D047281AD19DE118E0632835D064282E
:1032F00079D0652812D195E1702873D008DC672851
:10330000F1D069286FD06E280DD06F2806D1B5E0B6
:1033100073282CD0752875D0782874D05A46179900
:1033200090476D1C75E1C4F30250022809D00328B0
:103330000DD0D9F8001004280DD00D6009F1040952
:1033400067E1D9F80010EA17C1E90052F6E7D9F8A9
:1033500000100D80F2E70D70F0E719F8041B8DF8EE
:10336000001000208DF80100EA46012003E059F822
:1033700004AB4FF0FF3061074FF0000102D40DE0C5
:1033800008F101018846B9420FDA8045F8DB1AF8E6
:1033900008100029F4D108E008F1010188468142B3
:1033A000FADB1AF808100029F6D105985B46A0EB65
:1033B000080721463846179A00F094FA284400EB93
:1033C000080507E04DE029E10DE01AF8010B5A4627
:1033D00017999047B8F10108F7D25B462146384665
:1033E000179A13E142E00A220092C4F302524FF00E
:1033F000000A022A08D059F804CB032A4FEAEC71DC
:103400000AD00DE029E02AE009F1070121F00702C6
:10341000F2E802C1914609E00FFA8CFC4FEAEC7128
:10342000042A03D14FFA8CFC4FEAEC71002907DA29
:103430000A460021DCF1000C61EB02012D2202E0C2
:10344000220504D52B228DF80420012203E0E20797
:1034500001D02022F7E7904659E00A2102E010222D
:103460000DE010214FF0000A00910BE010224FF008
:10347000000A44F004040827009203E008224FF0F9
:10348000000A0092C4F30252022A05D059F804CB74
:103490000021032A08D009E009F1070121F0070201
:1034A000F2E802C1914605E01FFA8CFC042A01D122
:1034B0000CF0FF0C4FF00008220728D5702806D02A
:1034C000009B83F0100353EA0A0305D00EE040226C
:1034D0008DF80420012208E05CEA010206D03022C7
:1034E0008DF804208DF8050002229046009B83F0A1
:1034F000080353EA0A030AD15CEA010201D1620718
:1035000005D530228DF804204FF001087F1E582881
:1035100004D034A003900EA802900DE036A0F9E785
:1035200053466046009AFDF723F984460398825C6F
:103530000298401E029002705CEA0100F0D10298ED
:1035400006A9081A00F1200A600702D524F4803485
:1035500000E00127574502DDA7EB0A0000E000204C
:1035600000EB0A01009005984144401A0590E003E1
:1035700006D45B462146179A059800F0B3F9054436
:10358000002706E001A85A46C05D179990476D1CB8
:103590007F1C4745F6DBE0030CD55B462146179AB6
:1035A000059800F09FF9054404E030205A46179929
:1035B00090476D1C0099481E00900029F5DC08E03A
:1035C000029802995A460078491C0291179990472F
:1035D0006D1CBAF10001AAF1010AF1DC65E10000FD
:1035E00009280100303132333435363738396162D9
:1035F000636465660000000030313233343536379D
:1036000038394142434445460000000000F058F973
:103610000544761C307800287FF4ECAD19B02846BC
:10362000BDE8F08F620700D4062709F1070222F0F7
:10363000070CFCE80223E14603F000485FEA080CAF
:1036400002D00FF2702C0DE05FEA045C02D50FF29D
:10365000682C07E05FEAC47C02D00FF2602C01E026
:10366000AFF2700C4FF0FF3823F00043CDF850C09C
:1036700065280CD006DC452809D046281DD04728EF
:103680003DD13DE0662818D067287ED138E0002182
:10369000112F01DB112000E0781CCDE9000106A903
:1036A0000EA8FFF7DDFCDDE90F010E9A0391002162
:1036B000009207F1010A04914DE04FF0004000979D
:1036C000CDE9011006A90EA8FFF7CAFCDDE90F023B
:1036D00003920E9B11990022DDF80CA00093049236
:1036E00011B9791C00EB010AB7EB0A0004D4C0F150
:1036F000FF3007F1010A0490AAEB0700019044E0B3
:10370000012F00DA01270021112F01DD112000E037
:103710003846CDE9000106A90EA8FFF7A1FCDDE9B6
:103720000F010E9A0391002104910092BA462107DD
:103730000CD40399514500DA8A46BAF1010F05DD30
:10374000009AAAF10101515C302908D0B84202DA8E
:1037500010F1040F06DA0121CDE9011015E0AAF1FC
:103760000101E9E7002805DC049901440491AAEB72
:10377000000102E0411C514500DD8A460499401ACF
:10378000401C01904FF000400290200704D40198A3
:10379000504501DBCDF8048000208DF84F000298E1
:1037A0000DF14F07B0F1004F25D02B200E9002985D
:1037B0004FF0020800280CDA404202902D200E90B3
:1037C00007E00A210298FCF7BDFF3031029007F8AC
:1037D000011DB8F10001A8F10108F2DC02980028EF
:1037E000EFD1791E0E980870307800F0200040F07C
:1037F000450007F8020D12A8C01B00F10708149835
:10380000007800B1012000EB0A01019801EBE071A2
:1038100005984144401A401E0590E00306D45B46DB
:103820002146179A059800F05DF805441498007831
:1038300018B15A46179990476D1CE00324D55B4692
:103840002146179A059800F04DF805441CE00498AD
:10385000002807DBDDE90301884203DD0098405CB6
:10386000179901E0179930205A469047049805F1BE
:103870000105401C04900198401E019004D12E20A7
:103880005A46179990476D1CBAF10001AAF1010A36
:10389000DDDC05E017F8010B5A46179990476D1CBF
:1038A000B8F10001A8F10108F4DC5B462146179A43
:1038B0000598ABE62D0000002B0000002000000062
:1038C0002DE9F041044600251E461746880404D41D
:1038D00005E039462020B0476D1C641EF9D5284606
:1038E000BDE8F0812DE9F041044600251E469046D2
:1038F000C80301D5302700E02027880404D505E05F
:1039000041463846B0476D1C641EF9D52846BDE8CF
:10391000F08100002DE9F84F04460D4621F00040EB
:1039200000917349814211DC7249884201DC06D161
:103930002CB120462946BDE8F84FFFF769BB6E4819
:10394000002DCCBF6D496E49BDE8F88F6D498142AD
:1039500011DD6D498142D8BF4FF0FF366DDD204645
:103960002946FFF717F8042808BFFFF75BFB20463E
:103970002946BDE8F88F6549654F25F0004581422D
:1039800033DD6449814219DD002632464FF0804321
:1039900020462946FCF7B0FC80468A460122204694
:1039A0002946FCF7CBFF00223B46FCF746FD42468A
:1039B0005346FCF7BAFD04460D463EE001260022C0
:1039C000BA463B4620462946FCF796FC80460F4601
:1039D0000022534620462946FCF72FFD42463B462F
:1039E000FCF7A3FD04460D4627E04B4981421BDD51
:1039F000DFF828A102260022534620462946FCF77C
:103A000022FD00223B46FCF777FC80460F46002251
:103A1000534620462946FCF710FD42463B46FCF73C
:103A200084FD04460D4608E0032622462B4600206E
:103A30003B49FCF77AFD04460D4622462B461046CC
:103A40001946FCF700FD8B46824602460B46FCF702
:103A5000FAFC07460246334888460B46062178445E
:103A6000FFF70AFA52465B46FCF7EDFC82462E4809
:103A70008B463A46434605217844FFF7FDF93A461E
:103A80004346FCF7E0FC02460B46002E50465946E2
:103A90000CDAFCF731FC22462B46FCF7D4FC01B0D3
:103AA00022462B46BDE8F04FFCF7CABCFCF724FCCD
:103AB00022462B46FCF7C7FC1C4A7A4402EBC6039D
:103AC000D3E90023FCF7B9FC22462B46FCF7B5FCF2
:103AD000174A7A4402EBC603D3E90023FCF7B0FC93
:103AE000009A002AB8BF81F00041BDE8F88F0000BD
:103AF000000010440000F07F182D4454FB21F93FD2
:103B0000FB21F9BF0000DC3F0000203E0000F33F36
:103B10000000F03F0000E63F008003400000F83F57
:103B20000000F0BFAE2000006C2000000A20000062
:103B3000D21F00002DE9FF4100221E4B1E4903C980
:103B4000FCF7DAFB0546FCF7CDFD04461B4903C92B
:103B5000FCF7C8FD07464FF08042214600F0F2FA1C
:103B6000174903C9CDE90201164803C8CDE9000190
:103B7000154816490CC803C900F052FF01F0BAFA03
:103B800001F090FD01F0FAFA01F0D6FA01F032FCF2
:103B90000F4801780FA0FEF7EDFE1248017812A041
:103BA000FEF7E8FE1548017815A0FEF7E3FEBDE834
:103BB000FF8100000000F03F60010020580100205C
:103BC000D8000020D0000020C8000020C000002045
:103BD00052010020D1D5C9ABD6D6C0E0A3BA256327
:103BE0002020200050010020D6D0D0C478D7F8B1D2
:103BF000EAA3BA2564202020000000005101002023
:103C0000D6D0D0C479D7F8B1EAA3BA25640A202067
:103C1000200000002DE9F05F82468B46104C114DCC
:103C2000DFF84480DFF8449011490978A1F1500091
:103C3000FCF7EAFC064622462B46FCF704FC0D4A3C
:103C400003C20D490978C1F16B00FCF7DDFC0646A3
:103C500042464B46FCF7F7FB084A03C2BDE8F09F1B
:103C6000713D0AD7A370D43F602CF9C5925FD43F51
:103C70005001002058010020510100206001002067
:103C800000B5244B21F0004287B09A42DCBF0022ED
:103C9000134629DD204B9A4208D140B94FF001006C
:103CA000FFF7D8F9FFF7B7F907B000BD03DBFFF75F
:103CB000AFF907B000BD02AAFEF79CFE10F00301A9
:103CC00004BF0DF1080C9CE80F000DD00120012964
:103CD0000ED0022914D00DF1080C00909CE80F00C2
:103CE000FFF720F907B000BDFFF748F807B000BDA7
:103CF0000DF1080C00909CE80F00FFF713F905E0A8
:103D00000DF1080C9CE80F00FFF738F807B081F0C0
:103D1000004100BDFB21E93F0000F07F13B50C46D8
:103D20004FF6FF73012269460248FEF777F90098C3
:103D30001CBD000014020020FDF720F9FEF723FB54
:103D4000FEF7D8F9FEF71EFAFEF770FAFEF7E0FA72
:103D5000FEF7C2FA012225492548FEF725F900F0B1
:103D6000D3F901F061FC23A0FEF704FE26480CC83D
:103D700026A0FEF7FFFD2B480CC82BA0FEF7FAFD8E
:103D80002F480CC82FA0FEF7F5FD34480CC834A00E
:103D9000FEF7F0FD3848047838480578384806784A
:103DA00023E0354804783548057835480678C8203A
:103DB000FCF728FF29462046FFF72CFF422E02D1B0
:103DC000FFF7B8FE07E0592E02D101F0F1FD02E045
:103DD00001F010FB09E0002027490870274908700E
:103DE00041266420FCF70EFF00BFDAE748010020FF
:103DF000580200207265736574312066696E6973BC
:103E0000686564210D0A0000C0000020B5D7D7F90D
:103E1000B6E6BBFAB5C4D6B5CEAAA3BA25660D0AD6
:103E200000000000C8000020B9D8BDDA31B6E6BBFA
:103E3000FAB5C4D6B5CEAAA3BA25660D0A0000000D
:103E4000D0000020B9D8BDDA32B6E6BBFAB5C4D688
:103E5000B5CEAAA3BA25660D0A000000D80000203E
:103E6000B9D8BDDA33B6E6BBFAB5C4D6B5CEAAA387
:103E7000BA25660D0A000000500100205101002003
:103E80005201002070B505464A48007870B92C2DC3
:103E90000CD1012047490870474802780078401C3F
:103EA000454B1870454820F8125081E04148007891
:103EB00001280ED1122D0CD102203E4908703E4837
:103EC00002780078401C3C4B18703C4820F8125097
:103ED0006EE038480078022839D1374802780078F7
:103EE000401C354B1870354820F8125018460078A1
:103EF000062801DAFF2D5BD103202E4908702E48D9
:103F00000078001F2D4911F810002D4908702A482B
:103F10000078C01E294911F810002A490870264867
:103F20000078801E254911F81000274908702448A0
:103F3000017826A0FEF71EFD2248017827A0FEF793
:103F400019FD214801782AA0FEF714FD30E0194838
:103F5000007803281DD118480078401E174931F811
:103F600010005B2805D10020134908701149087022
:103F70001EE000200F4908700F490870002405E07A
:103F800000200E4921F81400601CC4B20A2CF7DB93
:103F90000EE000200749087007490870002405E07A
:103FA0000020064921F81400601CC4B20A2CF7DB7B
:103FB00070BD000069010020680100209C02002003
:103FC000520100205001002051010020D1D5C9AB81
:103FD000D6D6C0E03A20256320202000D6D0D0C419
:103FE00078D7F8B1EAA3BA256420202000000000A9
:103FF000D6D0D0C479D7F8B1EAA3BA25640D0A2087
:10400000202000002DE9F04F89B004460D461646E9
:104010001F46DDE914ABDDE91289DDE91801CDE9C0
:104020000601DDE9160132463B468DE8000FCDE979
:1040300004012046294601F0EFFB002213462A49DD
:1040400003C9FCF71FFB06D0274903C9FCF7EDFAAB
:1040500026490968486300221346254903C9FCF72D
:1040600011FB06D0224903C9FCF7DFFA1F49096892
:104070008863002213461F4903C9FCF703FB06D0DF
:104080001C4903C9FCF7D1FA18490968C863002222
:104090001346194903C9FCF7F5FA06D0164903C9B6
:1040A000FCF7C3FA11490968086400221346134952
:1040B00003C9FCF7E7FA06D0104903C9FCF7B5FAC3
:1040C0000F4909688863002213460E4903C9FCF7AB
:1040D000D9FA06D00B4903C9FCF7A7FA08490968C1
:1040E000086409B0BDE8F08FF0000020CC0100208A
:1040F000F80000200001002008010020100100202D
:10410000840100201801002010B500210B48FDF7A4
:10411000FBFC04210948FDF7F7FC08210748FDF7DF
:10412000F3FC0C210548FDF7EFFC04210448FDF7E2
:10413000EBFC0C210248FDF7E7FC10BDCC01002090
:104140008401002007B5AEB0FE492F98FCF7F0FAC5
:1041500002D8FC482F9006E0FB492F98FCF7DEFAC6
:1041600001D8F9482F90002017901690F748229018
:10417000F7482C902B902A90299000212E98FCF73C
:10418000CDFA02D1F348289021E022992F98FBF72D
:10419000EBFF01460C902E98FCF770F80D90FCF7A1
:1041A0005DFACDE90E01FFF7B5FB4FF06632EA4B41
:1041B000CDE91001FCF747F90022E84BCDE91201E7
:1041C000FCF73EF9CDE91401FCF78CFA28900020A9
:1041D0001890D8E11898FCF717FAE14AE14BCDE9BD
:1041E0001001FCF730F90022DF4BCDE91201FCF79A
:1041F0009CF9CDE91401FCF775FA21902E99084637
:10420000FCF70AF8109022992F98FBF7ADFF0E905B
:1042100022992F98FBF7A8FF0D900E99FBF7FCFF52
:104220000F901099FBF7A0FF1190FCF717FACDE95A
:10423000120101F0CBFACDE91401FCF753FA2090FA
:1042400030981F902198FCF709FACDE90A0101F096
:104250006DFACDE90E012998FCF700FACDE90C01C1
:10426000DDE90E23FCF7EFF8CDE912012098FCF709
:10427000F5F9CDE91001DDE91223FCF7DEF8CDE90F
:104280001401FCF72FFA24902C98FCF7E7F9CDE9FC
:1042900012012198FCF7E2F9CDE90601FFF7F0FCE5
:1042A000CDE90A012998FCF7D9F9CDE90801DDE942
:1042B0000A23FCF7C8F8CDE90E011F98FCF7CEF9E8
:1042C000CDE90C01DDE90E23FCF7B7F8CDE91001CB
:1042D000DDE91223FCF7B1F8CDE91401FCF702FA8D
:1042E00023904FF080402B99FBF796FF13902A996B
:1042F000FBF792FF15902A990846FBF78DFF139064
:104300002B990846FBF788FF119023990846FBF785
:1043100083FF0F9024990846FBF77EFF0E900F99BC
:10432000FBF722FF10901199FBF770FF1290139981
:10433000FBF76CFF14901599FBF7A0FF1E901E99D8
:104340000846FBF769FF4FF07E511090FBF761FFC5
:104350001190FCF783F9CDE9120101F037FACDE9AC
:104360001401FCF7BFF91D90DDE91D01FBF786FF85
:104370000F90FCF773F9CDE91001FFF7CBFA4FF07E
:104380006632754BCDE91201FCF75DF8CDE91401F9
:10439000FCF7A8F926902698FCF760F94FF06632F2
:1043A0006D4BCDE90C01FCF7C0F8CDE90E0101F031
:1043B000BDF9CDE912012A98FCF750F9CDE91001B9
:1043C000DDE91223FCF73FF8CDE91401FCF78AF987
:1043D00019902698FCF742F94FF066325E4BCDE912
:1043E0000801FCF7A2F8CDE90A01FFF749FCCDE985
:1043F0000E012A98FCF732F9CDE90C01DDE90E2314
:10440000FCF721F8CDE912012B98FCF727F9CDE94B
:104410001001DDE91223FBF76FFFCDE91401FCF772
:1044200061F91A9019990846FBF7F6FE13901A994C
:104430000846FBF7F1FE12901399FBF795FE1590D5
:1044400023991A98FBF7E8FE139024991998FBF723
:10445000E3FE12901399FBF787FE14901599FBF772
:104460000DFF1C901C990846FBF7D6FE4FF07E51BD
:104470001090FBF7CEFE1190FCF7F0F8CDE9120199
:1044800001F0A4F9CDE91401FCF72CF91B90DDE94A
:104490001B01FBF7F3FE0F90FCF7E0F8CDE91001EC
:1044A000FFF738FA4FF066322B4BCDE91201FBF7DC
:1044B000CAFFCDE91401FCF715F927902698FCF7FF
:1044C000CDF8CDE912012798FCF7C8F8CDE90E0127
:1044D0002198FCF7C3F84FF066321F4BCDE90A0173
:1044E000FBF7B1FFCDE90C01DDE90E23FBF7A5FFDA
:1044F000CDE91001DDE91223FBF79FFFCDE914019F
:10450000FCF7F0F8259000212798FCF711F937D82F
:1045100000212698FCF70CF932D814492598FCF7AD
:1045200007F92DD812492798FCF7F8F828D8104930
:104530002698FCF7F3F823D806492598FCF7EEF8FF
:104540001ED817E00000904100004040000060418C
:10455000000040410000B44266A64C400080564036
:1045600097D17E5AFB210940008066400000B4C20A
:10457000000034434FF07E511798FBF7F5FD17907C
:104580001898401C18901898B4287FF723AE002084
:104590001890D9E11898FCF737F8FE4AFE4BCDE9A0
:1045A0001001FBF750FF0022FC4BCDE91201FBF795
:1045B000BCFFCDE91401FCF795F821902E9908462F
:1045C000FBF72AFE109022992F98FBF7CDFD0E9055
:1045D00022992F98FBF7C8FD0D900E99FBF71CFE52
:1045E0000F901099FBF7C0FD1190FCF737F8CDE95B
:1045F000120101F0EBF8CDE91401FCF773F82090FB
:1046000030981F902198FCF729F8CDE90A0101F0B4
:104610008DF8CDE90E012998FCF720F8CDE90C01C1
:10462000DDE90E23FBF70FFFCDE912012098FCF71F
:1046300015F8CDE91001DDE91223FBF7FEFECDE907
:104640001401FCF74FF824902C98FCF707F8CDE9FB
:1046500012012198FCF702F8CDE90601FFF710FBE3
:10466000CDE90A012998FBF7F9FFCDE90801DDE959
:104670000A23FBF7E8FECDE90E011F98FBF7EEFFDA
:10468000CDE90C01DDE90E23FBF7D7FECDE91001E2
:10469000DDE91223FBF7D1FECDE91401FCF722F886
:1046A00023904FF080402B99FBF7B6FD13902A9989
:1046B000FBF7B2FD15902A990846FBF7ADFD139064
:1046C0002B990846FBF7A8FD119023990846FBF7A4
:1046D000A3FD0F9024990846FBF79EFD0E900F99BD
:1046E000FBF742FD10901199FBF790FD1290139982
:1046F000FBF78CFD14901599FBF7C0FD1E901E99D9
:104700000846FBF789FD4FF07E511090FBF781FDC5
:104710001190FBF7A3FFCDE9120101F057F8CDE9A5
:104720001401FBF7DFFF1D90DDE91D01FBF7A6FD7E
:104730000F90FBF793FFCDE91001FFF7EBF84FF077
:104740006632974BCDE91201FBF77DFECDE91401EE
:10475000FBF7C8FF26902698FBF780FF4FF06632E4
:104760008F4BCDE90C01FBF7E0FECDE90E0100F027
:10477000DDFFCDE912012A98FBF770FFCDE91001AA
:10478000DDE91223FBF75FFECDE91401FBF7AAFF79
:1047900019902698FBF762FF4FF06632804BCDE907
:1047A0000801FBF7C2FECDE90A01FFF769FACDE97E
:1047B0000E012A98FBF752FFCDE90C01DDE90E232B
:1047C000FBF741FECDE912012B98FBF747FFCDE93E
:1047D0001001DDE91223FBF78FFDCDE91401FBF792
:1047E00081FF1A9019990846FBF716FD13901A9944
:1047F0000846FBF711FD12901399FBF7B5FC1590D5
:1048000023991A98FBF708FD139024991998FBF740
:1048100003FD12901399FBF7A7FC14901599FBF771
:104820002DFD1C901C990846FBF7F6FC4FF07E51BD
:104830001090FBF7EEFC1190FBF710FFCDE9120191
:1048400000F0C4FFCDE91401FBF74CFF1B90DDE93C
:104850001B01FBF713FD0F90FBF700FFCDE91001E3
:10486000FFF758F84FF066324D4BCDE91201FBF7D8
:10487000EAFDCDE91401FBF735FF27902698FBF7F9
:10488000EDFECDE912012798FBF7E8FECDE90E0118
:104890002198FBF7E3FE4FF06632414BCDE90A0168
:1048A000FBF7D1FDCDE90C01DDE90E23FBF7C5FDDA
:1048B000CDE91001DDE91223FBF7BFFDCDE91401BD
:1048C000FBF710FF259000212798FBF731FF38D820
:1048D00000212698FBF72CFF33D832492598FBF7A7
:1048E00027FF2ED830492798FBF718FF29D82E49E3
:1048F0002698FBF713FF24D82C492598FBF70EFFC9
:104900001FD84FF07E511698FBF72EFC16904FF0F3
:1049100080411798FBF7B2FC15901699FBF7FEFE45
:104920000ED04FF07E511798FBF71EFC4FF08041E0
:104930001490FBF7A3FC15901699FBF7EFFE00D13E
:1049400006E01898401C18901898B4287FF722AEFB
:1049500000BF2898FBF782FE154A03C22798FBF791
:104960007DFE144A03C22698FBF778FE124A03C262
:104970002598FBF773FE114A03C22598FBF76EFEDC
:10498000CDE914012698FBF769FECDE912012798BD
:1049900016E0000097D17E5AFB2109400080664056
:1049A00066A64C400000B4C2000034430000B4428C
:1049B000C0000020C8000020D0000020D800002047
:1049C000FBF74CFECDE910012898FBF747FECDE937
:1049D0000E012F98FBF742FECDE90C012E98FBF754
:1049E0003DFECDE90A01DDE91401CDE90801DDE96B
:1049F0001201CDE90601DDE91001CDE90401DDE98F
:104A00000E01CDE90201DDE90C01CDE90001034809
:104A1000DDE90A23FDF7AEFF31B000BD605C0008A0
:104A20002DE9F04F89B004460D4616461F46DDE9D4
:104A300014ABDDE912890021009152465B4608461D
:104A4000CDE90289CDE90467CDE90645019100F081
:104A5000D3F84FF4FA70FCF7D5F8002000905246D6
:104A60005B465D49CDE90289CDE90467CDE906459C
:104A7000019000F0C1F8594803C8CDE90601584833
:104A800003C8CDE90401574903C9CDE9020100215A
:104A90000091554801910CC808465449FFF7B2FAF5
:104AA0004FF4FA70FCF7AEF84C4903C9CDE90601A2
:104AB0004B4803C8CDE904014A4803C8CDE90201C7
:104AC00000200090019048480CC800204749FFF79B
:104AD00099FA3220FCF796F8404903C9CDE906015E
:104AE0003F4903C9CDE904013E4903C9CDE90201AB
:104AF0000020009001903C480CC800203B49FFF783
:104B000081FA3220FCF77EF8344903C9CDE9060169
:104B1000334903C9CDE90401324903C9CDE9020192
:104B200000210091304801910CC808462F49FFF739
:104B300069FA3220FCF766F8284903C9CDE9060175
:104B4000274903C9CDE90401264903C9CDE902017A
:104B500000200090019024480CC800202349FFF752
:104B600051FA3220FCF74EF81C4803C8CDE9060183
:104B70001B4803C8CDE904011A4803C8CDE9020166
:104B800000210091184801910CC808461749FFF709
:104B900039FA3220FCF736F8104903C9CDE906018D
:104BA0000F4803C8CDE904010E4903C9CDE902014C
:104BB000002100910C4801910CC808460B49FFF7F1
:104BC00021FA3220FCF71EF800210948094AC2E9FF
:104BD000001009B0BDE8F08F00004EC0C0000020FA
:104BE000C8000020D0000020D8000020004050C0A5
:104BF000000049C0900000202DE9FF5F8AB01646F2
:104C00001F46DDE91EAB18AC94E83003FE480CC823
:104C100030463946FBF711FC21F00041FB4A03C244
:104C2000FB480CC820462946FBF707FC21F0004151
:104C3000F84A03C2F8480CC840464946FBF7FDFB5A
:104C400021F00041F54A03C2F5480CC8DDE91C011A
:104C5000FBF7F3FB21F00041F24A03C2F2480CC813
:104C600050465946FBF7E9FB21F00041EF4A03C2E9
:104C7000E648D0E90010EE4AC2E90010E548D0E964
:104C80000010EC4AC2E90010E448D0E90010EA4AFA
:104C9000C2E90010E34903C9E84A03C2E34903C972
:104CA000E74A03C20022134630463946FBF7EAFCC6
:104CB0005AD03AE0D4480CC830463946FBF7FAFCE3
:104CC00006D2D2480CC830463946FBF7B6FB05E0A1
:104CD000CE480CC830463946FBF70EFBCDE908013B
:104CE000D14803C8CDE90601CD4803C8CDE9040188
:104CF000C94903C9CDE90201C54903C9CDE900018C
:104D0000DDE90823DDE90A01FFF77CF91420FBF750
:104D100079FFBD4ADDE9080103C20022C94BBB4946
:104D200003C9FBF78AFBB94A03C20022C64BB74945
:104D300003C9FBF7BFFCBDD9B348C0C0BA4903C91A
:104D4000CDE90601B64803C8CDE90401B24903C95B
:104D5000CDE90201AE4803C832463B46CDE9000129
:104D6000DDE90A01FFF74EF90022134620462946E5
:104D7000FBF788FC58D03AE0A5480CC820462946E5
:104D8000FBF798FC06D2A3480CC820462946FBF73F
:104D900054FB05E09F480CC820462946FBF7ACFAB7
:104DA000CDE90801A04903C9CDE906019C4803C823
:104DB000CDE90401984903C9CDE90201DDE9080103
:104DC00032463B46CDE90001DDE90A01FFF71AF959
:104DD0001420FBF717FF8E4ADDE9080103C2002209
:104DE000984B8C4903C9FBF728FB8A4A03C200226F
:104DF000954B884903C9FBF75DFCBDD9844830C099
:104E0000894803C8CDE90601854903C9CDE90401F4
:104E1000814803C832463B46CDE90045CDE9020151
:104E2000DDE90A01FFF7EEF8002213464046494645
:104E3000FBF728FC53D038E077480CC84046494679
:104E4000FBF738FC06D275480CC840464946FBF7CC
:104E5000F4FA05E071480CC840464946FBF74CFAA5
:104E6000CDE90801704903C9CDE906016C4803C8C2
:104E7000CDE90401DDE9080132463B46CDE90045B4
:104E8000CDE90201DDE90A01FFF7BCF81420FBF7C8
:104E9000B9FE614ADDE9080103C20022694B5F499E
:104EA00003C9FBF7CAFA5D4A03C20022664B5B499D
:104EB00003C9FBF7FFFBBFD95748C0E900895A492E
:104EC00003C9CDE90601564903C932463B468DE880
:104ED0003003CDE90401DDE90A01FFF793F8002270
:104EE000134650465946FBF7CDFB4DD034E04E48B3
:104EF0000CC850465946FBF7DDFB06D24B480CC8A0
:104F000050465946FBF799FA05E048480CC8504608
:104F10005946FBF7F1F9CDE90801DDE90801CDE9D2
:104F200006013F4903C932463B468DE83003CDE9CF
:104F30000401DDE90A01FFF765F81420FBF762FEC2
:104F4000394ADDE9080103C200223E4B374903C953
:104F5000FBF773FA354A03C200223B4B334903C9BE
:104F6000FBF7A8FBC3D93048C0E900AB2C48CDE91A
:104F700006AB03C832463B468DE83003CDE9040159
:104F8000DDE90A01FFF73EF800221346DDE91C01C6
:104F9000FBF778FB70D032E021480CC8DDE91C013A
:104FA000FBF788FB06D21F480CC8DDE91C01FBF7A4
:104FB00044FA05E01B480CC8DDE91C01FBF79CF92D
:104FC000CDE90801CDE906ABDDE9080132463B46F3
:104FD0008DE83003CDE90401DDE90A01FFF712F89D
:104FE0001420FBF70FFE0E4ADDE9080103C2002280
:104FF000144B0C4903C9FBF720FA0A4A03C20022EA
:10500000114B084903C921E0980000203800002016
:10501000A000002040000020A80000204800002040
:10502000B000002050000020B800002058000020F0
:1050300008000020100000201800002020000020A0
:10504000280000200000F03F00000840FBF732FB82
:10505000A2D91B4ADDE91C10C2E90010CDE906AB5C
:10506000DDE91C0132463B468DE83003CDE9040101
:10507000DDE90A01FEF7C6FF4FF47A70FBF7C2FDC7
:10508000104903C9104A03C2104903C9104A03C298
:105090001048D0E90010104AC2E900100F4903C9B6
:1050A0000F4A03C20F4903C90F4A03C20F48D0E990
:1050B00000100F4AC2E900100EB0BDE8F09F0000DA
:1050C000B000002000000020300000200800002078
:1050D00038000020100000204000002018000020B0
:1050E0004800002020000020500000202800002060
:1050F0005800002000B589B000210B48CDE906100A
:105100000A48CDE904100A48CDE9021000910A4688
:105110000346084601910749FFF76EFD4FF4FA7008
:10512000FBF770FD09B000BD00805640008046408E
:1051300000003E40004050C000B589B000210B483F
:10514000CDE906100A48CDE904100A48CDE902105D
:1051500000910A460346084601910749FFF74CFDB6
:105160004FF47A70FBF74EFD09B000BD0080564049
:105170000080464000003E4000002EC000B589B0CF
:1051800000214848CDE9061008464749CDE9040109
:1051900000214648CDE9021000910A460346084620
:1051A00001914349FEF72EFF4FF49670FBF72AFD5D
:1051B00000203C49CDE906013B49CDE90401014607
:1051C0003A48CDE90210002100910A4603460846FC
:1051D00001913749FEF716FF1E20FBF713FD002053
:1051E0003049CDE9060101462F48CDE904100021E0
:1051F0002E48CDE9021000910A4603460846019167
:105200002B49FEF7FFFE1E20FBF7FCFC0020254982
:10521000CDE9060101462448CDE9041000202349C8
:10522000CDE90201009002460B4621490190FEF7AC
:10523000E9FE1E20FBF7E6FC00211A48CDE9061026
:1052400008461949CDE9040100211848CDE90210AA
:1052500000910A460346084601911549FEF7D2FE21
:105260001E20FBF7CFFC00200E49CDE906010146C8
:105270000D48CDE9041000200C49CDE90201009051
:1052800002460B460A490190FEF7BCFE4FF4FA7045
:10529000FBF7B8FC00210648064AC2E9001009B035
:1052A00000BD0000000064400080464000003E4019
:1052B00000002EC09000002000B589B000214848B1
:1052C000CDE9061008464749CDE9040100214648CA
:1052D000CDE9021000910A46034608460191434970
:1052E000FEF790FE4FF49670FBF78CFC00203C49D3
:1052F000CDE906013B49CDE9040101463A48CDE933
:105300000210002100910A460346084601913749E0
:10531000FEF778FE1E20FBF775FC00203049CDE932
:10532000060101462F48CDE9041000212E48CDE9A1
:10533000021000910A460346084601912B49FEF7E8
:1053400061FE1E20FBF75EFC00202549CDE9060129
:1053500001462448CDE9041000202349CDE902018B
:10536000009002460B4621490190FEF74BFE1E209D
:10537000FBF748FC00211A48CDE9061008461949F8
:10538000CDE9040100211848CDE9021000910A4638
:105390000346084601911549FEF734FE1E20FBF72F
:1053A00031FC00200E49CDE9060101460D48CDE94A
:1053B000041000200C49CDE90201009002460B4682
:1053C0000A490190FEF71EFE4FF4FA70FBF71AFC33
:1053D00000210648064AC2E9001009B000BD0000DD
:1053E000000034400080464000003E4000002EC0D7
:1053F000900000202DE9F04F8FB000BF00BF00BF2C
:1054000000218048804AC2E900108048D0E900AB02
:105410007F4903C9CDE90C017E4903C9CDE90A01E1
:1054200052465B4600207C49FBF70DF880468946D2
:105430002EE042464B4679487949FBF704F8CDE91E
:10544000080100216F48CDE90610DDE90801CDE92A
:1054500004016F4903C9CDE90201002100916D48A3
:1054600001910CC80846FEF7CDFD1E20FBF7CAFBD4
:1054700042464B4669486A49FAF7E5FF634A03C268
:1054800052465B4640464946FAF7D7FF8046894672
:105490000022134640464946FBF70CF9C9D90021C2
:1054A0005848CDE9061004910591594903C9CDE941
:1054B000020100200090019056480CC800200146CF
:1054C000FEF7A0FD00205449DDE90C23FAF7BBFFED
:1054D00004460D462CE022462B4650485049FAF728
:1054E000B2FFCDE9080100214648CDE9061004913C
:1054F0000591DDE90801CDE902010021009145484F
:1055000001910CC80846FEF77DFD1E20FBF77AFBD3
:1055100022462B4641484249FAF795FF3C4A03C2CE
:1055200020462946DDE90C23FAF787FF04460D469D
:105530000022134620462946FBF7BCF8CBD90021B0
:105540003048CDE906100491059102910391009134
:10555000304801910CC80846FEF754FD00202E4942
:10556000DDE90A23FAF76FFF06460F4629E03246C7
:105570003B462A482A49FAF766FFCDE9080100218F
:105580002048CDE906100491059102910391009104
:1055900001910846DDE90823FEF734FD1E20FBF7E4
:1055A00031FB32463B461D481D49FAF74CFF194A6C
:1055B00003C230463946DDE90A23FAF73EFF0646C4
:1055C0000F460022134630463946FBF773F8CED912
:1055D00000210C48CDE90610049105910291039138
:1055E00000910A460B4608460191FEF70BFD4FF469
:1055F0007A70FBF707FB00200A4A106050600FB07A
:10560000BDE8F08F00805640B8000020B0000020B8
:10561000A800002098000020000024409A99999941
:105620009999B93F9000002000B589B00021164833
:10563000CDE90610049105910291039100910A466B
:105640000B4608460191FEF7DDFC4FF47A70FBF73C
:10565000D9FA00210D4A1160516000200C4A1060F7
:1056600050600C4A106050600B4A116051600B4A48
:105670001160516004490A4A03C24FF47A70FBF783
:10568000C1FA09B000BD0000008056409000002023
:1056900098000020A0000020A8000020B0000020FA
:1056A000B800002000B589B000210B48CDE90610F4
:1056B0000A48CDE904100A48CDE9021000910A46D3
:1056C0000346084601910749FFF796FA4FF47A70AE
:1056D000FBF798FA09B000BD000064400080464026
:1056E00000003E40004050C000B589B000210B488A
:1056F000CDE906100A48CDE904100A48CDE90210A8
:1057000000910A460346084601910749FFF774FADB
:105710004FF47A70FBF776FA09B000BD0000344010
:105720000080464000003E40004050C000B5254B80
:1057300021F0004287B09A4203DC00221346009217
:105740002BE0214B9A4208D140B94FF00100FDF700
:1057500081FCFDF760FC07B000BD03DBFDF758FCE2
:1057600007B000BD02AAFDF745F910F003014FF0A4
:1057700001000DD0012914D002291AD00DF1080C16
:105780009CE80F00FDF7FAFA07B081F0004100BD78
:105790000DF1080C00909CE80F00FDF7C3FB07B06B
:1057A00000BD0DF1080C9CE80F00FDF7E7FA07B00B
:1057B00000BD0DF1080C00909CE80F00FDF7B2FB56
:1057C000E2E70000FB21E93F0000F07F2DE9F04116
:1057D00006460F46FBF7C9F8041E0D4618BF012008
:1057E000284320F00040C0F17F6000F1E040C00F8E
:1057F0000ED0301C18BF0120384320F00040C0F10B
:105800007F6000F1E040C00F04BF0120FDF722FCE3
:1058100020462946BDE8F0812DE9F04F8BB00646C1
:105820000F4690469946DDE916450022534B304617
:105830003946FAF761FD0022514BCDE90601FAF72E
:1058400074FE824600224F4BFAF756FD00224E4B63
:10585000CDE90801FAF7F7FD4C4A03C20022484B94
:1058600040464946FAF748FD0022454BCDE906017E
:10587000FAF75BFE0022434BCDE90801FAF73CFD45
:1058800082460022404BFAF7DEFD414A03C2002265
:105890003B4BDDE91401FAF748FE0022394BCDE914
:1058A0000801FAF729FD82460022374BFAF7CBFDB3
:1058B000384A03C285F000400022314BCDE9004058
:1058C00020460199FAF718FD82460022324BFAF77A
:1058D0002CFE0022314BCDE90201FAF7B4FD002283
:1058E000274BCDE90401FAF720FE0022254BCDE934
:1058F0000601FAF701FD0022234BCDE90801FAF772
:10590000A2FD274A03C200221D4BDDE91801FAF768
:105910000CFE0022234BCDE90201FAF794FD002290
:10592000174BCDE90401FAF7E7FC82460022144B3D
:10593000FAF7FBFD0022134BCDE90601FAF7DCFC78
:105940000022114BCDE90801FAF77DFD164A03C28A
:1059500000220B4BDDE91A01FAF7E7FD0022094BA3
:10596000CDE90801FAF7C8FC82460022064BFAF797
:105970006AFD0E4A03C20BB0BDE8F08F00805140B3
:10598000008056400000E03F00408F40F0000020C3
:10599000F80000200001002000E070400080664018
:1059A0000801002000405040100100201801002094
:1059B0002DE9FF4100221E4B1E4903C9FAF79CFC4A
:1059C0000546FAF78FFE04461B4903C9FAF78AFE1B
:1059D00007464FF080422146FEF7B4FB174903C942
:1059E000CDE90201164803C8CDE900011548164962
:1059F0000CC803C9FFF714F8FFF77CFBFFF774FE30
:105A0000FFF75AFCFFF798FBFFF7F4FC0F4801780B
:105A10000FA0FCF7AFFF1248017812A0FCF7AAFF15
:105A20001548017815A0FCF7A5FFBDE8FF8100002F
:105A30000000F03F6001002058010020D800002045
:105A4000D0000020C8000020C0000020520100202B
:105A5000D1D5C9ABD6D6C0E0A3BA2563202020009B
:105A600050010020D6D0D0C478D7F8B1EAA3BA2527
:105A7000642020200000000051010020D6D0D0C4B6
:105A800079D7F8B1EAA3BA25640A202020000000E3
:105A900000000000000000000102030406070809DE
:105AA00000000000010203044FBB610567ACDD3F4D
:105AB000182D4454FB21E93F9BF681D20B73EF3F35
:105AC000182D4454FB21F93FE2652F227F2B7A3CAD
:105AD000075C143326A6813CBDCBF07A8807703C66
